S01400006275696C642F6C6162314D4F502E73313955
S31520000000204821490222062300F02AF8FEE70000B4
S3152000001000000000000000000000000000000000BA
S3152000002000000000000000000000000000000000AA
S31520000030000000000000000000000000000000009A
S315200000400100000002000000030000000400000080
S31520000050FFFFFFFFFEFFFFFFFDFFFFFFFCFFFFFF90
S315200000609A1A022300F001F8704730B4934205DA59
S315200000709D0044595D004C530133F7E730BC70476F
S31120000080FEE700004000002030000020B9
S70520000000DA
